S00D00004F4C4544312E73726563C2
S214400000E02C4020012E4000B12E4000B12E400092
S214400010B12E4000B12E4000B12E4000000000003E
S214400020000000000000000000000000B12E40006C
S214400030B12E400000000000B12E4000B12E40001E
S214400040B12E4000B12E40000536400041344000FD
S214400050B12E4000B12E4000B12E4000B12E4000DF
S214400060B12E400000000000712540008925400068
S214400070A1254000B12E4000B12E4000B12E4000D8
S214400080B9254000D1254000B12E4000B12E400099
S214400090B12E4000B12E4000B12E4000B12E40009F
S2144000A00133400035334000B12E4000B12E4000B1
S2144000B069334000B12E4000B12E4000B12E4000C2
S2144000C0B12E4000B12E4000B12E4000B12E40006F
S2144000D000000000B12E400000000000B12E40009D
S2144000E0B12E4000B12E4000B12E4000B12E40004F
S2144000F0B12E4000B12E4000B12E4000B12E40003F
S214400100B12E4000B12E4000B12E4000B12E40002E
S214400110B12E40000000000000000000000000007B
S214400120B12E4000B12E4000B12E4000B12E40000E
S214400130B12E400000000000B12E4000B12E40001D
S21440014010B5054C237833B9044B13B10448AFF3CC
S21440015000800123237010BDD80940200000000015
S214400160649040000C4B43B10C480D4910B5AFF3BA
S21440017000800C48036823B910BD0A48036833B9A9
S2144001807047094B002BF7D0BDE810401847064B88
S214400190002BF5D0184700BF0000000064904000D8
S2144001A0DC094020649040000000000080B483B02A
S2144001B000AF786039603B68002B06D07B685B6890
S2144001C043F001027B685A6005E07B685B6823F079
S2144001D001027B685A6000BF0C37BD465DF8047B61
S2144001E0704780B483B000AF786039607B683A6807
S2144001F01A6200BF0C37BD465DF8047B704780B47A
S21440020087B000AFF860B9607A603B60FB689B6877
S2144002107B6102E0FB689B687B61FB689A687B6950
S2144002209A42F7D1BB68002B1CD07B691B0C03F0AD
S2144002303F033B613B691A0913469B0013445B002E
S2144002401A463B6903F00F031A44BB681A607B6981
S21440025003F48003002B05D0BB681B6803F10C0237
S214400260BB681A607B68002B11D07B691B0A03F0C1
S2144002707F033B613B691A0913469B0013445B00AE
S2144002801A463B6903F00F031A447B681A603B68C2
S214400290002B10D07B6903F07F033B613B691A0952
S2144002A013469B0013445B001A463B6903F00F035A
S2144002B01A443B681A6000BF1C37BD465DF8047B95
S2144002C07047000080B487B000AFF860B9607A60CD
S2144002D03B6000237B61FB685B6803F00103012BF6
S2144002E009D1BB680C2B06D9BB680C3BBB607B694D
S2144002F043F480037B61BB68334AA2FB0323DB08DD
S2144003001805B968304BA3FB0123DA0813469B0057
S21440031013445B00CA1A130403437A6913437B6190
S2144003207B68294AA2FB0323DB0818037968264B1F
S214400330A3FB0123DA0813469B0013445B00CA1A4A
S214400340130203437A6913437B613B681E4AA2FB50
S2144003500323DB08180139681B4BA3FB0123DA088B
S21440036013469B0013445B00CA1A40EA02037A69AC
S21440037013437B6100BFFB689B6903F00403042BB7
S214400380F9D1FB681B6843F00102FB681A6000BFA6
S214400390FB689B6903F00103012BF9D1FB6801223E
S2144003A0DA61FB687A699A60FB681B6823F0010291
S2144003B0FB681A60FB68DB6A03F0010318461C37CB
S2144003C0BD465DF8047B7047CDCCCCCC80B487B0BE
S2144003D000AFF860B9607A603B6000237B61BB6821
S2144003E0002B24D0FB685B6803F00103012B09D186
S2144003F07B680C2B06D97B680C3B7B607B6943F49F
S21440040080037B617B682E4AA2FB0323DB0818052A
S21440041079682B4BA3FB0123DA0813469B00134451
S2144004205B00CA1A130403437A6913437B613B6833
S214400430002B14D03B6A224AA2FB0323DB08180396
S214400440396A1F4BA3FB0123DA0813469B0013446B
S2144004505B00CA1A130203437A6913437B617B6AC3
S214400460002B14D0BB6A164AA2FB0323DB081801F4
S214400470B96A134BA3FB0123DA0813469B001344C7
S2144004805B00CA1A40EA02037A6913437B61FB6841
S2144004901A690C4B1340FA681361FB687A691A6153
S2144004A0FB681A69084B1343FA681361FB68DB6AFA
S2144004B003F0040318461C37BD465DF8047B7047BE
S2144004C0CDCCCCCC7F7F7FFF8080800080B489B04D
S2144004D000AFF860B9607A603B60FB68DB68FB6140
S2144004E002E0FB68DB68FB61FB68DA68FB699A42FE
S2144004F0F7D1BB68002B24D0FB6903F07F03BB61B8
S214400500BB691A0913469B0013445B001A46BB6935
S21440051003F00F0313447B61FB691B0ADBB2BB612C
S2144005207B69642202FB03F1BB691A0913469B00F0
S21440053013445B00CA18BB6903F00F031A44BB6838
S2144005401A607B68002B11D0FB691B0C03F01F035D
S214400550BB61BB691A0913469B0013445B001A46ED
S214400560BB6903F00F031A447B681A603B68002B94
S21440057011D0FB691B0E03F03F03BB61BB691A0930
S21440058013469B0013445B001A46BB6903F00F03F7
S2144005901A443B681A60BB6A002B05D0FB695B0DAA
S2144005A003F00702BB6A1A6000BF2437BD465DF8F9
S2144005B0047B704780B487B000AFF860B9607A605B
S2144005C03B6000237B61BB68474AA2FB03239B0931
S2144005D01801BB68454AA2FB03235909444BA3FBB9
S2144005E00123DA0813469B0013445B00CA1A40EA0C
S2144005F002037A6913437B61BB683D4AA2FB03232F
S214400600D9083B4BA3FB0123DA0813469B0013444F
S2144006105B00CA1A1003B968354BA3FB0123DA08FE
S21440062013469B0013445B00CA1A130203437A69BD
S21440063013437B617B682E4AA2FB0323DB08180525
S21440064079682B4BA3FB0123DA0813469B0013441F
S2144006505B00CA1A130403437A6913437B613B6AFF
S2144006605B057A6913437B613B68214AA2FB0323FF
S214400670DB08180739681E4BA3FB0123DA0813462C
S2144006809B0013445B00CA1A130603437A6913435C
S2144006907B6100BFFB689B6903F00403042BF9D120
S2144006A0FB681B6843F00202FB681A6000BFFB68E9
S2144006B09B6903F00103012BF9D1FB680122DA6143
S2144006C0FB687A69DA60FB681B6823F00202FB6805
S2144006D01A60FB68DB6A03F0020318461C37BD4607
S2144006E05DF8047B704700BFD34D62101F85EB5109
S2144006F0CDCCCCCC80B487B000AFF860B9607A601F
S2144007003B6000237B61BB68002B14D07B68224A89
S214400710A2FB0323DB08180579681F4BA3FB0123C4
S214400720DA0813469B0013445B00CA1A13040343BB
S2144007307A6913437B613B68002B14D03B6A164AA8
S214400740A2FB0323DB081807396A134BA3FB0123DC
S214400750DA0813469B0013445B00CA1A1306034389
S2144007607A6913437B61FB685A690C4B1340FA68FD
S2144007705361FB687A695A61FB685A69084B1343B0
S214400780FA685361FB68DB6A03F0080318461C37B7
S214400790BD465DF8047B7047CDCCCCCCFFFF7F7F59
S2144007A00000808080B483B000AF78607B689B692F
S2144007B018460C37BD465DF8047B704780B483B05E
S2144007C000AF786039607B683A68DA6100BF0C3702
S2144007D0BD465DF8047B704780B483B000AF786058
S2144007E00B467B807A88074B1B68134343F4802272
S2144007F07B681A60002318460C37BD465DF8047BBC
S214400800704700BFF409402080B483B000AF7860E2
S2144008100B46FB70FB78002B0DD0104B1B6843F04B
S21440082080730E4A13607B681A680C4B1B681A4329
S2144008307B681A600CE0094B1B6823F08073074AFC
S21440084013607B681A68054B1B681A437B681A60FE
S21440085000BF0C37BD465DF8047B7047F409402066
S21440086080B485B000AF786039607B681B68FB60F9
S214400870FA683B681343FB60064B1B68FA681343F1
S214400880FB607B68FA681A6000BF1437BD465DF8A7
S214400890047B7047F409402080B485B000AF786090
S2144008A039600023FB607B681B68FB603B68DB436A
S2144008B0FA681340FB60074B1B68FA681343FB60FB
S2144008C07B68FA681A6000BF1437BD465DF8047B43
S2144008D0704700BFF409402080B485B000AF786010
S2144008E07B689B68FB6002E07B689B68FB607B687C
S2144008F09A68FB689A42F7D1FB6818461437BD469B
S2144009005DF8047B704780B483B000AF78607B6846
S214400910DB6818460C37BD465DF8047B7047000020
S21440092080B584B000AF786039607B681B6803F49C
S2144009308033FB604FF480310D480E4B98473B6840
S214400940002B04D17B684FF0FF325A6003E03B68CF
S2144009505A1E7B685A60FB68002B04D04FF48031E7
S2144009600348054B9847002318461037BD4680BDC0
S21440097030180E40990840006108400080B483B0AB
S21440098000AF78607B685B6803F00203002B01D001
S214400990012300E0002318460C37BD465DF8047B73
S2144009A07047000080B582B000AF78607868034B2F
S2144009B0984700BF0837BD4680BD00BFAD28400001
S2144009C080B582B000AF78607B68094A934203D115
S2144009D01520084B984706E07B68074A934202D1A9
S2144009E02A20044B984700BF0837BD4680BD00BF4D
S2144009F000800040A50940000080054080B483B0D8
S214400A0000AF786039607B685B6823F470227B684F
S214400A105A607B685A683B681B0403F470231A4389
S214400A207B685A6000BF0C37BD465DF8047B704754
S214400A3080B584B000AF7860084611461A46034633
S214400A407B800B467B7013463B7043F69823FB60D7
S214400A5006E0FB685A1EFA60002B01D1012320E015
S214400A607B681B6903F00203002BF2D078680F4BBB
S214400A7098470346002B0ED07A887B781B0403F4F5
S214400A8070231343BB603B78002B06D0BB6843F013
S214400A908073BB6001E07B88BB607B68BA68DA60C5
S214400AA0002318461037BD4680BD00BF7D09400074
S214400AB080B485B000AFF860B9607A607B68002B80
S214400AC00CD0FB68BA680C3253F8223043F0010170
S214400AD0FB68BA680C3243F822100BE0FB68BA6831
S214400AE00C3253F8223023F00101FB68BA680C320E
S214400AF043F8221000BF1437BD465DF8047B7047AC
S214400B0080B485B000AFF860B9607A607B68002B2F
S214400B100CD0FB68BA680C3253F8223043F002011E
S214400B20FB68BA680C3243F822100BE0FB68BA68E0
S214400B300C3253F8223023F00201FB68BA680C32BC
S214400B4043F8221000BF1437BD465DF8047B70475B
S214400B5080B485B000AFF860B9607A607B68042BDB
S214400B6018D1FB68BA680C3253F8223023F00801DB
S214400B70FB68BA680C3243F82210FB68BA680C323D
S214400B8053F8223043F00401FB68BA680C3243F84D
S214400B9022102AE07B68002B18D1FB68BA680C321A
S214400BA053F8223023F00801FB68BA680C3243F849
S214400BB02210FB68BA680C3253F8223023F0040146
S214400BC0FB68BA680C3243F822100EE07B68082BAC
S214400BD00BD1FB68BA680C3253F8223043F0080158
S214400BE0FB68BA680C3243F8221000BF1437BD4683
S214400BF05DF8047B704780B485B000AFF860B9609C
S214400C007A60FB68BA680C3253F8223023F0F00161
S214400C10FB68BA680C3243F82210FB68BA680C329C
S214400C2053F822207B6842EA0301FB68BA680C321C
S214400C3043F8221000BF1437BD465DF8047B70476A
S214400C4080B485B000AF786039603A687B681344FA
S214400C505A1E7B68B2FBF3F3FB60FB68002B02DD99
S214400C60FB68FF2B02DD4FF0FF3301E0FB681BB251
S214400C7018461437BD465DF8047B704780B485B08F
S214400C8000AFF860B9601346FB71FB79002B02D1C8
S214400C904FF0FF331BE0FB68BA680C3253F8223043
S214400CA023F47F41FB68BA680C3243F82210FB6895
S214400CB0BA680C3253F82220FB791B029BB242EAF8
S214400CC00301FB68BA680C3243F82210002318462A
S214400CD01437BD465DF8047B704780B487B000AFDC
S214400CE0F860B9607A60FA68BB689B0113447B6120
S214400CF07B6902221A607B694FF0FF329A627B69F9
S214400D001B6A7B697A685A6000BF1C37BD465DF82F
S214400D10047B704780B483B000AF786039607A68EF
S214400D203B689B01134405221A6000BF0C37BD4642
S214400D305DF8047B704780B485B000AFF860B9605A
S214400D407A60FA68BB689B0113441C337A681A6061
S214400D5000BF1437BD465DF8047B704780B487B04B
S214400D6000AFF860B9607A60FA68BB689B011344CC
S214400D707B617B697A685A6200BF1C37BD465DF866
S214400D80047B704780B485B000AF786039607A687D
S214400D903B689B011344FB60FB681B6A184614378C
S214400DA0BD465DF8047B704780B48DB000AFF860F8
S214400DB0B9607A603B6002233B6108237B61202355
S214400DC0BB618023FB61BB6BDB0B3B620023FB629A
S214400DD01AE0FB6A9B0007F13002134453F8203CAC
S214400DE0BA68B2FBF3F3BB62BB6A1B0C7B62FA6861
S214400DF0BB6A9A4201D9002323E0FA687B6A9A428A
S214400E0006D2FB6A0133FB62FB6A042BE1D900E0A1
S214400E1000BFFB6A042B01D9002312E07B68002B3D
S214400E2008D0FB6A9B0007F13002134453F8202C8D
S214400E307B681A603B68002B02D03B68FA6A1A60EF
S214400E40012318463437BD465DF8047B70470000E2
S214400E5080B483B000AF7860044A7B68136000BFFC
S214400E600C37BD465DF8047B704700BFF80940204C
S214400E7080B483B000AF0346FB710B46BB7113468C
S214400E807B71084B1A68FB79DB011946BB790B442A
S214400E9013447A791A7000BF0C37BD465DF8047B60
S214400EA0704700BFF809402080B483B000AF0346C7
S214400EB00A46FB711346BB71074B1A68FB79DB0188
S214400EC01946BB790B4413441B7818460C37BD466D
S214400ED05DF8047B704700BFF809402090B585B0A8
S214400EE000AF0446084611461A462346FB710346A1
S214400EF0BB710B467B7113463B71FA797B79134481
S214400F00802B06DDFB79C3F1FF2303F57F03803397
S214400F107B71BB79DB08FB73BA79FB7BDB00D31AAA
S214400F20012202FA03F3BB737B79002B66D03B7930
S214400F30012B1CD0022B5BD0002B3BD05FE0FA7914
S214400F407B791344DAB2FB7B114618462D4B984703
S214400F5003467B737A7BBB7B13437B73FA797B793F
S214400F601344D9B27A7BF87B0023274CA0477B7981
S214400F705A1E7A71002BE2D141E0FA797B7913440C
S214400F80DAB2FB7B114618461E4B984703467B73E6
S214400F9097F90E30DB435AB297F90D3013405BB2E7
S214400FA07B73FA797B791344D9B27A7BF87B00233A
S214400FB0154CA0477B795A1E7A71002BDDD11EE076
S214400FC0FA797B791344DAB2FB7B114618460D4B0F
S214400FD0984703467B737A7BBB7B53407B73FA7997
S214400FE07B791344D9B27A7BF87B0023064CA04722
S214400FF07B795A1E7A71002BE2D100E000BF14378D
S214401000BD4690BD191440009513400090B583B07E
S21440101000AF0446084611461A462346FB7103466F
S214401020BB710B467B7113463B713B79002B0FD04F
S21440103008E0BA793B791344D9B23B7E7A79F8799D
S214401040054CA0473B795A1E3A71002BF1D100E07F
S21440105000BF0C37BD4690BDDD0E400080B586B063
S21440106000AF3B600346FB710B46BB7113467B717A
S214401070BB793B747B79FB733B681B7ADB08FB745C
S2144010803B681B7A03F00703DBB2002B02D0FB7CE5
S2144010900133FB74FB7C9AB23B685B7A9BB212FBD3
S2144010A003F39AB2FB793968897A5B1A9BB212FBD2
S2144010B003F3BB813B685A68BB8913447B613B683A
S2144010C05B7ABB740023BB733B681B7AFB720023BE
S2144010D07B741EE07B7C03F00703DBB2002B05D15C
S2144010E07B691B78BB737B6901337B6197F90E3054
S2144010F0002B05DAF97B3B7C012218460E4B9847BD
S2144011003B7C01333B74BB7B5B00BB737B7C013316
S2144011107B747A7CFB7A9A42DCD3FB7B0133FB738D
S214401120BB793B74BB7C013BBB74BB7C002BC9D1F9
S21440113000BF1837BD4680BDF912400090B585B057
S21440114002AF3B600346FB710B46BB7113467B7197
S2144011503B681A7A3B685C7A7979B87900230093C1
S2144011602346094CA0473B681B78002B00D006E07E
S2144011707A79B979F8793B68044CA04700BF00BF3C
S2144011800C37BD4690BD00BF0D1040005D104000BE
S21440119090B587B000AFF8607B600B46FB72134695
S2144011A0BB72FB7AFB75FB681B780A2B09D1FB7D6B
S2144011B0FB727B685A7ABB7A1344DBB20133BB724C
S2144011C00FE0FB681B780D2B0BD0FB681878BA7ABB
S2144011D0F97A7B68084CA0477B681A7AFB7A1344F6
S2144011E0FB72FB680133FB60FB681B78002BDAD18F
S2144011F000BF1C37BD4690BD3D11400080B582B053
S21440120000AF0346FB71FB7903F00F03FB71FB79DC
S21440121063F04F03DBB21846024B984700BF0837CF
S214401220BD4680BD011B400080B582B000AF03467E
S214401230FB71FB7903F07F03FB71FB791B09DBB283
S21440124043F01003DBB21846064B9847FB7903F091
S2144012500F03DBB21846034B984700BF0837BD461E
S21440126080BD00BF011B400080B582B000AF034682
S214401270FB71FB7903F03F03FB71FB7943F04003BE
S214401280DBB21846024B984700BF0837BD4680BDC4
S214401290011B400090B583B000AF1248124B9847F0
S2144012A0124B98470020124B98470023FB7112E0E0
S2144012B00023BB7108E0B979F879012300220D4C70
S2144012C0A047BB790133BB7197F90630002BF2DAA1
S2144012D0FB790133FB71FB79032BE9D900BF0C374F
S2144012E0BD4690BDFC094020510E4000511A4000BA
S2144012F0691240009513400090B585B000AF034694
S214401300FB710B46BB7113467B7197F90730002B78
S21440131038DBBB791F2B35D8BB79DB08BB73BA7972
S214401320BB7BDB00D31A012202FA03F37B73FA7904
S214401330BB7B11461846154B98470346FB737B7993
S214401340012B04D0022B11D0002B05D013E0FA7BE2
S2144013507B7B1343FB730EE097F90D30DB435AB2A9
S21440136097F90F3013405BB2FB7304E0FA7B7B7B4C
S2144013705340FB7300BFFA7BF979B87B0023044CDB
S214401380A04700E000BF1437BD4690BD191440008A
S2144013909513400090B583B000AF0446084611460A
S2144013A01A462346FB710346BB710B467B711346B8
S2144013B03B713B7983F00103DBB2002B0AD0BA794C
S2144013C0FB79114618460F4B984703461A467B79D9
S2144013D0934212D07A79B979FB7918460A4B9847E6
S2144013E0FB791846094B9847BB791846084B9847EF
S2144013F07B791846074B984700E000BF0C37BD4640
S21440140090BD00BFA90E4000710E4000FD11400087
S21440141029124000A51B400080B582B000AF0346AD
S2144014200A46FB711346BB71BA79FB7911461846DA
S214401430034B9847034618460837BD4680BD00BF55
S214401440A90E400080B483B000AF78607B68072B5D
S21440145025D801A252F823F0791440007F144000AA
S214401460851440008B1440008F14400093144000B5
S214401470971440009B1440004FF4FA4310E04FF49A
S21440148000430DE04FF400430AE0084B08E0084BE9
S21440149006E0084B04E0074B02E0064B00E0002362
S2144014A018460C37BD465DF8047B704700093D0082
S2144014B000127A00001BB70080B500AF0620054B2F
S2144014C09847024613469B0013449A001344184616
S2144014D080BD00BF4514400080B500AF024B984722
S2144014E00346184680BD00BFB914400080B500AF23
S2144014F0024B984703465B08184680BDB914400027
S21440150080B489B000AF78607B68FB61FB69BB61E3
S214401510BB695A09FB697B617B6903F01F030121A4
S21440152001FA03F33A61FB603B69BB60BA68064B5D
S21440153013445B021A46FB68136000BF2437BD465F
S2144015405DF8047B704700BF0707200080B48DB06D
S21440155000AF786039607B68FB623B68BB62FB6AC1
S2144015607B627B6A5A09FB6A3B623B6A03F01F0355
S214401570012101FA03F3FA61BB61BB6A7B61FB6937
S2144015803B613A69374B13445B02FB607B6903F06F
S2144015900803002B03D0FB68BA695A6602E0FB6872
S2144015A0BA691A667B6903F01003002B04D0FB6807
S2144015B0BA69C3F8942003E0FB68BA69C3F8902080
S2144015C07B6903F02003002B03D0FB68BA691A65D9
S2144015D002E0FB68BA695A657B6903F0C003002BDA
S2144015E003D0FB68BA691A6202E0FB68BA695A62BD
S2144015F07B6903F08003002B04D0FB68BA69C3F80C
S214401600842003E0FB68BA69C3F880207B6903F056
S2144016100103002B06D0FB681A6FBB691A43FB68B0
S2144016201A6706E0FB681A6FBB69DB431A40FB6823
S2144016301A677B6903F00203002B06D0FB685A6FDB
S214401640BB691A43FB685A6706E0FB685A6FBB697A
S214401650DB431A40FB685A6700BF3437BD465DF827
S214401660047B70470707200080B48DB000AF7860D9
S2144016700B46FB707B68FB62FB7887F82B30FB6A77
S2144016807B627B6A3B623B6A5B09FB61FA69174B8C
S21440169013445B02BB6197F82B30012B09D1FB6AE0
S2144016A07B617B6903F01F0301229A40BB691A6184
S2144016B00CE097F82B30002B08D1FB6A3B613B6966
S2144016C003F01F0301229A40BB695A61FB6AFB6024
S2144016D0FB6803F01F0301229A40BB69C3F8A020B1
S2144016E000BF3437BD465DF8047B704707072000CF
S2144016F080B48BB000AF78600B46FB707B687B6233
S214401700FB7887F823307B6AFB61FB69BB61BB696A
S2144017105B097B617A69104B13445B023B6197F827
S2144017202330002B09D07B6AFB60FB6803F01F0365
S21440173001229A403B691A6308E07B6ABB60BB683B
S21440174003F01F0301229A403B695A6300BF2C37BF
S214401750BD465DF8047B70470707200080B483B021
S21440176000AF78607B6880221A6000BF0C37BD46A9
S2144017705DF8047B704780B483B000AF78607B68C8
S21440178001221A6000BF0C37BD465DF8047B7047E7
S21440179080B483B000AF78607B6802221A6000BFD6
S2144017A00C37BD465DF8047B704780B483B000AF0D
S2144017B078607B685B6843F001027B685A6000BFD4
S2144017C00C37BD465DF8047B704780B483B000AFED
S2144017D078607B685B6823F002027B685A6000BFD3
S2144017E00C37BD465DF8047B704780B483B000AFCD
S2144017F078607B685B6843F010027B685A6000BF85
S2144018000C37BD465DF8047B704780B483B000AFAC
S21440181078607B685B6823F080027B685A6000BF14
S2144018200C37BD465DF8047B7047000080B582B03B
S21440183000AF0F4B984702460E4BA3FB02239A0C71
S21440184013469B0013445B007B60002151200A4BEB
S21440185098477868094B984701215120064B98478E
S2144018607868064B984700BF0837BD4680BD00BF26
S214401870D914400083DE1B43F1164000010040208F
S21440188080B500AFAF20024B984700BF80BD00BF79
S214401890011B400080B582B000AF0346FB7181203B
S2144018A0054B9847FB791846034B9847FB791846F3
S2144018B00837BD4680BD00BF011B400080B500AF65
S2144018C0A620024B984700BF80BD00BF011B4000CA
S2144018D090B583B000AF01215120464B9847012177
S2144018E02320444B984708215120434B98470821D2
S2144018F02320414B98472320404B984751203F4B4D
S2144019009847012123203E4B9847012151203C4BCC
S214401910984700234FF480024FF0805139483A4CA4
S214401920A04700234FF400124FF080513548364C04
S214401930A04700234FF000724FF080513148324CA0
S214401940A04700234FF480024FF080512D482E4C84
S214401950A04700234FF400124FF0805129482A4CEC
S214401960A04700234FF000724FF080512548264C88
S214401970A0472648264B98472448264B9847234856
S214401980254B9847082201212048244B984700229F
S21440199001211E48224B9847002201211B48214B1B
S2144019A098471A48204B98470022012117481F4B5A
S2144019B0984716481E4B984714481E4B98471E4B50
S2144019C09847034619461D481D4B984703467B607B
S2144019D07B68DBB21A4601210C481A4B98470B48E5
S2144019E0194B98470948194B984700BF0C37BD46D6
S2144019F090BD00BF691640004D15400001154000DF
S214401A00F116400000140E40552240000080004071
S214401A10911740005D174000AB174000510B400047
S214401A20B10A4000010B4000CB174000F70B4000C6
S214401A300B184000EB174000ED14400080841E0059
S214401A40410C40007D0C4000C10940007717400023
S214401A5080B500AF234B9847234B98470121512030
S214401A60224B9847A820224B98471F20204B984748
S214401A70D3201F4B984700201D4B984740201C4BB7
S214401A809847A1201A4B9847C820194B9847DA2008
S214401A90174B98470220164B98478F20154B984770
S214401AA0A420134B9847144B9847D520104B984783
S214401AB080200F4B98478D200D4B984714200C4B99
S214401AC09847DB200A4B98474020094B9847D92037
S214401AD0074B9847F120064B9847084B984700BF5E
S214401AE080BD00BFD11840002D184000F1164000C0
S214401AF0011B400095184000BD184000811840006A
S214401B00F0B583B000AF0346FB71002123201C4B89
S214401B10984701211B481C4B9847FB7999B20123F3
S214401B2001221848194CA047194B984703461946B6
S214401B304FF000020B461446A60046EA93769D00F8
S214401B402B4634465B1844EB0204DB1844EB040493
S214401B50194622460F4B4FF00004CD1842EB0406C0
S214401B60284631460C4C0D4A4FF00003A04703462A
S214401B700C4618460A4B984700BF0C37BD46F0BD8A
S214401B80F116400000800040FD094000310A400048
S214401B90D9144000DF835A00193A4000E0835A00C7
S214401BA001004020F0B583B000AF0346FB71012131
S214401BB023201C4B984701211B481C4B9847FB7918
S214401BC099B2012301221848194CA047194B98474F
S214401BD0034619464FF000020B461446A60046EA56
S214401BE093769D002B4634465B1844EB0204DB1884
S214401BF044EB0404194622460F4B4FF00004CD1820
S214401C0042EB0406284631460C4C0D4A4FF0000382
S214401C10A04703460C4618460A4B984700BF0C3769
S214401C20BD46F0BDF116400000800040FD09400072
S214401C30310A4000D9144000DF835A00193A400068
S214401C40E0835A000100402080B582B000AF786043
S214401C507B68072B31D801A252F823F0B91C40000C
S214401C607D1C4000851C40008D1C4000951C40009B
S214401C709D1C4000A51C4000AF1C40000020114B9E
S214401C8098471AE001200F4B984716E000200E4B6D
S214401C90984712E010200C4B98470EE020200A4B45
S214401CA098470AE03E210020084B984705E03E2131
S214401CB00120064B984700E000BF00BF0837BD46EE
S214401CC080BD00BFE926400055274000C52740009C
S214401CD080B582B000AF78607B68072B26D801A21B
S214401CE052F823F0051D4000091D4000091D400024
S214401CF01B1D40001B1D40001B1D40001B1D4000BF
S214401D001B1D4000012312E00B4B98470346002B57
S214401D1014BF01230023DBB209E0084B9847034673
S214401D20002B14BF01230023DBB200E0002318463B
S214401D300837BD4680BD00BF212740003D284000F3
S214401D4080B483B000AF78607B68072B25D801A2AB
S214401D5052F823F0751D40007B1D4000811D400059
S214401D60871D40008B1D40008F1D4000931D400086
S214401D70971D40004FF4FA4310E04FF400430DE047
S214401D804FF400430AE0084B08E0084B06E0084BD7
S214401D9004E0074B02E0064B00E0002318460C37F1
S214401DA0BD465DF8047B704700093D0000127A008E
S214401DB0001BB70080B582B000AF0346FB7100BF82
S214401DC0FB791846054B9847034683F00103DBB280
S214401DD0002BF5D100BF0837BD4680BDD11C400062
S214401DE080B586B000AFF8607A603B600B46FB7209
S214401DF07B68002B07D13B68002B04D1FB684FF46F
S214401E0070021A6019E0FB7A18460E4B9847024655
S214401E107B68B2FBF3F37B617B693A6802FB03F3B2
S214401E207B613B68013B1A04074B13407A68D2B289
S214401E30134343F47C52FB681A6000BF1837BD4614
S214401E4080BD00BF411D40000000FF0780B582B046
S214401E5000AF786039603B68002B08D1094B984743
S214401E60094A7B681B6843F00053936205E0064AC4
S214401E707B681B6843F48033D36100BF0837BD4698
S214401E8080BD00BF5928400000060E4080B582B095
S214401E9000AF78607B68002B03D1054B984703461C
S214401EA002E0044B9847034618460837BD4680BDB7
S214401EB0752840009128400080B582B000AF0346A8
S214401EC0FB71FB79033B042B08D8FB791846064B7D
S214401ED09847FB791846054B984700E000BF00BF7F
S214401EE00837BD4680BD00BF491C4000B51D4000B8
S214401EF080B582B000AF786000BF7868044B9847E2
S214401F000346002BF9D0002318460837BD4680BD4F
S214401F108D1E400080B500AF0620054B9847024610
S214401F2013469B0013449A001344184680BD00BFD6
S214401F30411D400080B500AF024B98470346184607
S214401F4080BD00BF151F400090B583B000AF13485A
S214401F50134B98470620134B9847381D19230122E8
S214401F600621114CA0473B1D002118460F4B9847B1
S214401F7000200F4B984702200E4B984700200E4BF0
S214401F8098470E4B98470E4B984703461846044BC7
S214401F90984700BF0C37BD4690BD00BF00A3E11177
S214401FA021304000B91E4000E11D40004D1E40005B
S214401FB0F11E4000E925400065264000B92E40004D
S214401FC0351F400080B485B000AFF860B9607A60D5
S214401FD07B68002B03D0FB68BA685A6602E0FB6851
S214401FE0BA681A6600BF1437BD465DF8047B704772
S214401FF080B485B000AFF860B9607A60FB68BA68B4
S214402000C3F884207B685B004FF40042B2FBF3F3D6
S214402010013BC3F30D02FB68C3F88C2000BF1437A6
S214402020BD465DF8047B704780B483B000AF7860EF
S21440203039607B683A681A6300BF0C37BD465DF866
S214402040047B704780B483B000AF786039607B68AB
S2144020503A685A6300BF0C37BD465DF8047B70474C
S21440206080B487B000AFF860B9607A60FB687A6881
S2144020705A64BB68B3F1C05F4AD0B3F1C05F08D8BA
S214402080B3F1006F16D0B3F1805F2CD0002B69D02F
S21440209064E0B3F1205F65D0B3F1205F03D8B3F1BD
S2144020A0005F4AD05AE0B3F1405F5BD0B3F1605F67
S2144020B058D053E0FB681B6F7B61FB681A6F7B68E8
S2144020C0D9437B690B401A40FB681A67FB685B6F15
S2144020D07B61FB685A6F7B68D9437B690B401A402B
S2144020E0FB685A673AE0FB681B6F7B617A687B69DE
S2144020F01A43FB681A67FB685B6F7B61FB685A6F25
S2144021007B68D9437B690B401A40FB685A6725E0D9
S214402110FB681B6F7B61FB681A6F7B68D9437B69E2
S2144021200B401A40FB681A67FB685B6F7B617A68F6
S2144021307B691A43FB685A6710E0FB681B6F7B613C
S2144021407A687B691A43FB681A67FB685B6F7B613A
S2144021507A687B691A43FB685A6700BFFB687A68EF
S2144021605A6000E000BF1C37BD465DF8047B7047F0
S21440217080B584B000AFF860B9607A60B968F86836
S214402180194B98477B6803F001031A46B968F8680C
S214402190164B98477B6803F00A03002B03D0FB6876
S2144021A0BA681A6202E0FB68BA685A627B6803F053
S2144021B00203002B04D0FB68BA68C3F8802008E00E
S2144021C07B6803F00803002B03D0FB68BA68C3F8AB
S2144021D08420FB68BA685A61FB68BA681A6000BF18
S2144021E01037BD4680BD00BFD1234000C51F40000C
S2144021F080B584B000AFF860B9607A603B60B9687B
S214402200F868124B9847BA69B968F868104B98470F
S2144022103B68002B03D0FB68BA681A6502E0FB688F
S214402220BA685A657B68002B03D0FB68BA681A63A5
S21440223002E0FB68BA685A63FB68BA681A61FB68D2
S214402240BA681A6000BF1037BD4680BDD123400033
S214402250C51F400090B587B002AFF860B9607A609D
S2144022603B60BB68B3F1005F16D0B3F1005F09D89E
S214402270B3F1805F10D0B3F1C05F0DD0B3F1006F03
S2144022800AD03DE0B3F1405F1AD0B3F1605F17D09B
S214402290B3F1205F0ED033E07A68B968F8681C4B1B
S2144022A098473B6803F001031A467968F868194B6B
S2144022B0984727E03A687968F868174B984721E0CE
S2144022C0BB68B3F1605F0CBF01230023DBB21A4644
S2144022D03B6803F00403002B14BF01230023DBB24A
S2144022E019463B6803F00103002B14BF012300236B
S2144022F0DBB200930B467968F868084CA04701E0CB
S214402300002300E0012318461437BD4690BD00BFA9
S21440231061204000C51F400071214000F12140006F
S21440232080B483B000AF786039607B689A6B3B6856
S2144023301340002B01D1002300E0012318460C3740
S214402340BD465DF8047B704780B485B000AFF8604A
S214402350B9607A607B6803F01003002B20D0FB68DE
S214402360BA68C3F8B0207B6803F02003002B04D083
S214402370FB68BA68C3F8D42003E0FB68BA68C3F8C1
S214402380D0207B6803F04003002B04D0FB68BA687B
S214402390C3F8C02008E0FB68BA68C3F8C42003E06E
S2144023A0FB68BA68C3F8B42000BF1437BD465DF872
S2144023B0047B704780B483B000AF786039607B6838
S2144023C03A681A6400BF0C37BD465DF8047B704718
S2144023D080B483B000AF786039607B683A685A64EE
S2144023E000BF0C37BD465DF8047B704780B483B0B1
S2144023F000AF78607B68DB6C18460C37BD465DF8EE
S214402400047B704780B483B000AF78607B689B6C79
S21440241018460C37BD465DF8047B704780B584B0DF
S21440242000AF786039607868264B9847F8607868DF
S214402430254B98470246FB681340FB60FB68002B21
S2144024403CD00023BB6034E0204ABB681B011344E9
S2144024501A683B689A4226D11C4ABB681B01134443
S21440246004331A68FB681340002B1CD0174ABB681D
S2144024701B0113440C331B681449BA6812010A4402
S21440248010681249BA6812010A44043212681146AA
S21440249098470E4ABB681B01134404331B68DB4352
S2144024A0FA681340FB60BB680133BB60BB68062B11
S2144024B003D8FB68002BC7D100E000BF00BF103731
S2144024C0BD4680BDED23400005244000FC0B402067
S2144024D080B586B000AFF860B9607A603B60214B4B
S2144024E01B68062B01D9012338E00023FB7511E059
S2144024F0FB7D1B011C4A13443B613B691A68BB6861
S2144025009A4204D13B695A687B689A4208D0FB7D60
S2144025100133FB75FA7D134B1B689A42E8D900E0FD
S21440252000BF3B69BA681A603B697A685A603B6983
S2144025303A689A603B693A6ADA60FA7D094B1B68EA
S21440254001339A4204D1074B1B680133054A136096
S2144025503A687968F868054B984700231846183754
S214402560BD4680BD6C0C4020FC0B402049234000FB
S21440257080B500AF0A210248024B984700BF80BD95
S214402580000E0E401D24400080B500AF0B210248CF
S214402590024B984700BF80BD00100E401D244000EF
S2144025A080B500AF0C210248024B984700BF80BD63
S2144025B000120E401D24400080B500AF1021024896
S2144025C0024B984700BF80BD00140E401D244000BB
S2144025D080B500AF11210248024B984700BF80BD2E
S2144025E000160E401D24400080B483B000AF7860D3
S2144025F07B68013B032B1AD801A252F823F000BF98
S21440260011264000172640001F264000272640007F
S21440261000237B600EE04FF480737B600AE04FF44B
S21440262040737B6006E04FF400737B6002E000235B
S2144026307B6000BF0A490A4B1B6B23F440727B68E1
S21440264013430B6300BF064B9B6E03F00803002B3F
S214402650F9D000BF0C37BD465DF8047B704700BF1D
S21440266000060E4080B485B000AF78601D491D4B13
S2144026701B6B23F070027B6813430B634FF480534D
S214402680FB6007E0FB68002B01D1012323E0FB68D9
S214402690013BFB60134B9B6E03F00803002BF1D00D
S2144026A0104A104B1B6B23F0030343F002031363E3
S2144026B04FF48053FB6007E0FB68002B01D10123F9
S2144026C009E0FB68013BFB60064B9B6E03F008038A
S2144026D0002BF1D0002318461437BD465DF8047B26
S2144026E0704700BF00060E4080B483B000AF7860ED
S2144026F07B68012B05D10749064B9A68064B134366
S2144027008B60044B054A1A6000BF0C37BD465DF827
S214402710047B704710180E40000010A5080000A566
S21440272080B400AF094B5B6903F08003002B07D0F1
S214402730074B9B6E03F08003002B01D0012300E083
S21440274000231846BD465DF8047B704710180E40BF
S21440275000060E4080B483B000AF78601549154B34
S2144027601A6A154B13430B6200BF124B9B6E03F461
S2144027700033002BF9D00F490E4B1A6A0F4B13400B
S2144027807A68134343F45C130B6200BF094B9B6E9D
S21440279003F40033002BF9D00649064B1A6A084B5F
S2144027A0134043F45C130B6200BF0C37BD465DF824
S2144027B0047B704700060E40080037008FFFC8FFB6
S2144027C0FFFFC8FE80B483B000AF786039607B6896
S2144027D0002B08D01349134B1B6A134A1A40134B5D
S2144027E013430B6218E00F490E4B1A6A104B134006
S2144027F03A68120292B21A430E4B13430B6200BF62
S214402800084B9B6E03F00103002BF9D00549054B9E
S2144028101A6A094B13430B6200BF0C37BD465DF87E
S214402820047B704700060E40FCFFC8FE02003701DE
S214402830FCFFC8FF010037000000370180B400AF3E
S214402840044B9B6E03F480331846BD465DF8047B0C
S214402850704700BF00060E4080B400AF044B4FF0F8
S21440286000529A6200BFBD465DF8047B704700BFC9
S21440287000060E4080B400AF044B9B6E03F002038C
S2144028801846BD465DF8047B704700BF00060E4004
S21440289080B400AF044B9B6E03F040031846BD4621
S2144028A05DF8047B704700BF00060E4080B483B0DE
S2144028B000AF78607B683F2B01D901232FE07B680F
S2144028C01F2B13D8194B9A6901217B6801FA03F331
S2144028D01A4001217B6801FA03F39A421ED0134A3C
S2144028E001217B6801FA03F3136117E07B68203B04
S2144028F07B600E4BD3F8082101217B6801FA03F375
S2144029001A4001217B6801FA03F39A4206D0074A2F
S21440291001217B6801FA03F3C2F800310023184610
S2144029200C37BD465DF8047B704700BF00060E407E
S21440293080B483B000AF7860044A7B68136000BF01
S2144029400C37BD465DF8047B704700BF1C00402036
S21440295080B483B000AF204B1B6F7B607B6823F452
S214402960C0037B607B6843F480037B601A4A7B68C5
S21440297013671949184B1A6A184B13430B6200BF6A
S214402980154B9B6E03F00803002BF9D000237B60A9
S21440299003E000BF7B6801337B607B68B3F5FA7F5A
S2144029A0F7D300BF0C4B1B6A03F00803002BF9D08B
S2144029B0094B1B6F7B607B6823F4C0037B607B689E
S2144029C043F480037B60044A7B68136700BF0C3780
S2144029D0BD465DF8047B704700060E400400370095
S2144029E090B599B000AF78607B68013B042B00F24D
S2144029F0A58101A252F823F00D2A40000D2A40007E
S214402A002D2A40002D2A40001B2D4000724A724B52
S214402A101B6923F004031361704B01221A70BFF345
S214402A205F8F62B6BFF34F8F30BF87E17B68032B63
S214402A3003D100206A4B984703E04FF40010684BE0
S214402A40984772B6BFF35F8F644B00221A70654B8F
S214402A5001221A707B68042B0CBF01230023DAB2D4
S214402A6007F11C033B6407F11803FB6307F11403EB
S214402A70BB6307F110037B6307F10C033B6313460C
S214402A8087F82F30584B1B6ABB62574B1B6B7B62D9
S214402A90564B1B683B623B6C002B02D03B6CBA6AC1
S214402AA01A60FB6B002B03D04F4B9A6AFB6B1A6085
S214402AB0BB6B002B02D0BB6B00221A607B6B002BDB
S214402AC002D07B6B7A6A1A603B6B002B02D03B6B62
S214402AD03A6A1A604449BA6A454B13430B627B6AAA
S214402AE003F00303012B0ED97B6A23F0030343F064
S214402AF001037B623C4A7B6A13633B4B9B6E03F04D
S214402B000803002BF9D07B6A03F07003002B0CD02F
S214402B107B6A23F070037B62334A7B6A1363324BD3
S214402B209B6E03F00803002BF9D0324B98472E4B90
S214402B309B6E03F40033002BF9D02B492A4B1A6ABC
S214402B402D4B134043F45C130B62274B9B6E03F4F0
S214402B508033002BF9D0254A3B6A23F47063136018
S214402B6097F82F30002B07D01F491F4B1A6A234B6C
S214402B70134043F45C130B62184B01221A70BFF3E8
S214402B805F8F62B61E4B984772B6BFF35F8F134B8C
S214402B9000221A70FC69B86979693A69FB68FC6575
S214402BA0B86579653A65FB640023BB64FB6D03F04A
S214402BB00203002B2CD00C490B4B1B6A114A1A40BF
S214402BC0114B13430B620849074B1A6A0F4B1340CD
S214402BD043F45C130B624EE000ED00E0180040202A
S214402BE031294000700C402000060E40000C0E407C
S214402BF00800370059284000FFFFC8FEFEFFC8FF08
S214402C0051294000FCFFC8FE0200370187FFC8FF7D
S214402C10FB6D03F00103002B2DD04A4B1B6A03F0DB
S214402C200103002B0DD14749464B1B6A464A1A40C2
S214402C30464B13430B62434B9B6E03F00103002B42
S214402C40F9D0404B1B6A03F08073002B0BD13D49F3
S214402C503C4B1A6A3E4B13430B623A4B9B6E03F453
S214402C608033002BF9D03749364B1A6A394B13401C
S214402C7043F45C130B62BA6D374B1340002B08D0FD
S214402C80304ABB6D43F000539362BB6C43F0020383
S214402C90BB643B6D03F00303022B05D1294B9B6EAF
S214402CA003F00203002BF9D0264B1B6B7B642549AF
S214402CB07B6C23F070023B6D03F0700313430B6391
S214402CC0204B9B6E03F00803002BF9D0234AFB6C85
S214402CD013601C4A3B6D13631A4B9B6E03F008034C
S214402CE0002BF9D0174B9A6EBB6C1340002BF9D0D3
S214402CF01B4B00221A701B4B1B68002B05D0194B30
S214402D001B689847174B00221A60174B01221A700F
S214402D10BFF35F8F62B600BF10E0144A134B1B69C7
S214402D2043F004031361124B124A1A600E4B012201
S214402D301A70BFF35F8F62B630BF00BF00BF643704
S214402D40BD4690BD00060E40FCFFC8FF01003700A0
S214402D500000370187FFC8FF0000FF07000C0E4049
S214402D60700C4020740C40201800402000ED00E01D
S214402D7010180E40040000A580B483B000AFEFF3F7
S214402D8010837B607B68002B0CBF01230023DBB2E3
S214402D903B6072B6BFF35F8F044B00221A703B68ED
S214402DA018460C37BD465DF8047B70471800402037
S214402DB080B483B000AF78607B68002B14BF0123DB
S214402DC00023DBB218460C37BD465DF8047B7047DF
S214402DD080B582B000AF78607868074B9847034666
S214402DE0002B05D0054B01221A70BFF35F8F62B6E9
S214402DF000BF0837BD4680BDB12D400018004020BA
S214402E0080B584B000AF1E4BFB601E4BBB60FA68BB
S214402E10BB689A420CD007E0BB681A1DBA60FA68D5
S214402E20111DF96012681A60BB68174A9342F3D3C3
S214402E30164BBB6004E0BB681A1DBA6000221A60DD
S214402E40BB68134A9342F6D3124BFB60124AFB68A8
S214402E5023F07F039360114B98477860104A104BDD
S214402E601B6843F470031360BFF34F8FBFF36F8F3D
S214402E7078680C4B98470C4B98470C4B9847FEE7A6
S214402E806490400000004020D8094020D8094020E7
S214402E90DC0C40200000400000ED00E0792D4000B2
S214402EA088ED00E0D12D4000293D400039384000F3
S214402EB080B400AFFEE7000080B400AF524B1B6BFF
S214402EC003F00303012B14D0012B02D3022B38D07E
S214402ED07AE04E4B5B6903F08003002B04D04C4BEA
S214402EE04FF400421A606FE0494B4FF4FA421A60C2
S214402EF06AE0454B1B6A03F08073002B03D0444BBB
S214402F00444A1A6060E0424B434A1A603E4B1B6A92
S214402F1003F07003102B04D0202B08D0002B0ED0CB
S214402F200EE03B4B1B685B00394A136008E0384BA9
S214402F301A6813465B001344354A136000E000BF2E
S214402F4042E0314B1B6A03F08073002B03D0304BBA
S214402F50304A1A601CE02E4B2F4A1A602A4B1B6AD6
S214402F6003F07003102B04D0202B08D0002B0ED07B
S214402F700EE0274B1B685B00254A136008E0244B95
S214402F801A6813465B001344214A136000E000BFF2
S214402F901D4B1B6B03F00303022B14D11A4B9B6A89
S214402FA01B0CC3F30A030133194A126802FB03F3EE
S214402FB0174A1360144B9B6ADBB2154A1268B2FB81
S214402FC0F3F3134A136000BF0F4B1B6B03F0700301
S214402FD0702B08D10E4B1B68104AA2FB03235B08DC
S214402FE00B4A13600AE0084B1B6B1B0903F00703F0
S214402FF0074A126822FA03F3054A136000BFBD462B
S2144030005DF8047B704700BF00060E4010180E4067
S21440301020004020001BB70000093D00ABAAAAAA2A
S21440302080B483B000AF78607B681D4A934204D872
S2144030301C4B4FF080621A602BE07B681A4A934222
S21440304003D8184B194A1A6023E07B68184A934203
S21440305003D8144B174A1A601BE07B68164A934203
S21440306003D8104B154A1A6013E07B68144A934203
S21440307004D80C4B4FF004221A600AE07B68114AD1
S214403080934203D8074B104A1A6002E0054B0F4A9A
S2144030901A6000BF0C37BD465DF8047B704700BF22
S2144030A0BFF35E01000C0E407FE7BD020001000446
S2144030B03FDB1C0400020004FFCE7B050003000437
S2144030C0BFC2DA067FB639080005000400060004D1
S2144030D080B485B000AF7860104BFB60104B1B6827
S2144030E0002B02D10E4B0F4A1A600D4B1B68BB607B
S2144030F0BA687B681A44FB689A4202DD4FF0FF3399
S21440310006E0074B1A687B681344054A1360BB68A1
S21440311018461437BD465DF8047B7047FCFF4520D3
S214403120780C4020E02E402080B483B000AF0346A9
S214403130FB71094997F907305B09FA7902F01F02DB
S214403140012000FA02F241F8232000BF0C37BD46AA
S2144031505DF8047B704700BF00E100E080B483B0B8
S21440316000AF0346FB71094997F907305B09FA79C6
S21440317002F01F02012000FA02F2203341F8232019
S21440318000BF0C37BD465DF8047B704700E100E0A9
S21440319080B483B000AF0346FB71094997F9073006
S2144031A05B09FA7902F01F02012000FA02F260334E
S2144031B041F8232000BF0C37BD465DF8047B7047BE
S2144031C000E100E080B483B000AF03463960FB7195
S2144031D097F90730002B0BDA0D49FB7903F00F0304
S2144031E0043B3A68D2B25201D2B20B441A7609E096
S2144031F0084997F907303A68D2B25201D2B20B4426
S21440320083F8002300BF0C37BD465DF8047B70474B
S21440321000ED00E000E100E080B483B000AF7860ED
S2144032207B68072B25D801A252F823F04D32400088
S21440323053324000593240005F3240006332400013
S214403240673240006B3240006F3240004FF4FA4322
S21440325010E04FF400430DE04FF400430AE0084B03
S21440326008E0084B06E0084B04E0074B02E0064B3C
S21440327000E0002318460C37BD465DF8047B7047D7
S21440328000093D0000127A00001BB70080B500AF71
S2144032900620054B9847024613469B0013449A0067
S2144032A01344184680BD00BF1932400080B500AFB9
S2144032B0024B98470346184680BD00BF8D324000FB
S2144032C080B582B000AF7860396039687868094B5D
S2144032D098470346002B04D039687868064B9847D1
S2144032E003E039687868054B984700BF0837BD4605
S2144032F080BD00BF212340004520400029204000DB
S21440330080B582B000AF01210648074B9847034678
S2144033107B6001210548064B984700BF0837BD46ED
S21440332080BD00BF00C00040850D4000000E0E402E
S214403330C132400080B582B000AF02210648074B3C
S214403340984703467B604FF480710548054B984785
S21440335000BF0837BD4680BD00C00040850D400018
S21440336000120E40C132400080B582B000AF02214C
S2144033700648074B984703467B6004210548064BA2
S214403380984700BF0837BD4680BD00BF00000140DB
S214403390850D400000100E40C132400090B58BB005
S2144033A002AFF860B9607A603B601D4B9847F861A1
S2144033B0BB6818461B4B9847386807F1140107F15D
S2144033C01802FB6900930B46F969174CA0477968C9
S2144033D07B6943F480431A46F868144B98477968EB
S2144033E0BB69FA69B2FBF3F23B68B2FBF3F31A46E9
S2144033F0F8680F4B9847BB685BB2042118460D4BE4
S2144034009847BB685BB218460B4B98477B681022C0
S2144034101946F868094B984700BF2437BD4690BD0B
S214403420AD324000AD284000A90D4000DB0C400006
S214403430370D4000C5314000293140005D0D400049
S21440344080B582B000AF0C480C4B984778607B68DC
S21440345003F00103002B0AD04FF080410848094B87
S2144034609847054A044B1B6843F48023136000BF0B
S2144034700837BD4680BD00BF30180E4007094000E3
S21440348000120E40C132400080B586B000AFF860F2
S214403490B9607A60DFED266A97ED037AC6EE877AE2
S2144034A0FDEEE77AC7ED007A3B88FB820021214893
S2144034B0214B9847FB8A19461E48204B98477B6805
S2144034C003F48033002B12D01A481D4B98473861BE
S2144034D000BF18481A4B984702463B699A42F8D0B4
S2144034E0BA683B69134419461248164B984703205E
S2144034F0154B98470320154B984704210320144B3F
S21440350098470320134B98477B6803F44033002BBF
S21440351004D079680748104B984704E04FF4403190
S21440352004480E4B984700BF1837BD4680BD00BFC5
S2144035300000004730180E4009084000D9074000F8
S214403540D9084000210940005D31400091314000DB
S214403550C5314000293140006108400099084000CC
S21440356080B584B000AF78600B46FB70FB78682B64
S2144035700DD17A681D4B83FB02139910D317C91AD5
S2144035800B465B000B44DB00D31AFB6016E0FB786F
S2144035906D2B02D0FB78732B0ED17A68144B83FBCD
S2144035A0021313445911D317C91A0B461B015B1A51
S2144035B09B00D31AFB6001E00023FB6002200D4B0A
S2144035C098470346BB60FB68092B05DCFA680A4946
S2144035D0B8680A4B984704E0FA680949B868074B48
S2144035E09847BB6818461037BD4680BDABAAAA2A86
S2144035F089888888793D4000808D4000C1434000DE
S214403600848D400080B582B000AF1848184B98476C
S21440361078607B6803F00403002B02D0154B012230
S2144036201A707B6803F00203002B02D0124B012273
S2144036301A7004210D48114B984702210B480F4B36
S2144036409847012109480D4B9847082107480B4BDE
S214403650984710210548094B984720210348074BB7
S214403660984700BF0837BD4680BD00BF60180E4073
S214403670A5074000240040207D0C4020BD074000A8
S21440368082B090B585B002AF7860396007F1180116
S21440369081E80C0002201A4B984700217868194BA5
S2144036A09847B969FA69386A7B6A0093034678682E
S2144036B0154CA047B96AFA6A3B6B7868134CA0472A
S2144036C03B685BB21846124B98473B685BB218465D
S2144036D0104B98473B685BB2042118460E4B984700
S2144036E03B685BB218460D4B9847796B78680C4B35
S2144036F0984700BF0C37BD46BDE8904002B07047C3
S214403700AD284000AD014000B5054000C502400070
S2144037105D31400091314000C531400029314000C4
S214403720E301400080B400AF034B01221A7000BF93
S214403730BD465DF8047B70477C0C402090B583B056
S21440374002AF0C202D4B9847002300930023012204
S2144037504FF480712A482B4CA0470A20274B9847A5
S214403760002300930023012201212748254CA0472F
S2144037700C20224B984700230093002301224FF051
S21440378080411F481F4CA0470B201C4B98470023E6
S21440379000930023012204211C481A4CA047102005
S2144037A0164B984709234FF080524FF02051184847
S2144037B0184CA0473C224FF080511548164B98476E
S2144037C0164B009350234FF0805210211048144C53
S2144037D0A0474FF080510E48124B98470C48124B6A
S2144037E098471020114B984704211020104B9847BB
S2144037F0104B984700BF0437BD4690BDAD284000EB
S21440380000120E40F1214000000E0E4000100E4007
S21440381000140E4055224000F11F4000253740005E
S214403820D1244000B5234000ED234000293140001C
S214403830C531400095124000B0B5B4B006AF5E4BFF
S21440384098475E4B4FF400425A605D4B98475D4B3D
S21440385007F19C041D460FCD0FC495E8070084E889
S2144038600700022305936D4607F1A4040FCC0FC54D
S21440387023682B6007F19C030CCB02215248534C23
S214403880A0470823012218215148524CA047012145
S2144038904F48514B98470523022219214C484D4C1E
S2144038A0A04702214A484C4B9847102302221C212D
S2144038B04A48484CA0474FF4803202214FF07E5091
S2144038C0474B9847474B1B78DBB2002B06D002216C
S2144038D04248414B9847434B00221A70424B1B7854
S2144038E0DBB2002B2AD007F1900307F1940207F1D0
S2144038F0980135483D4CA047D7F89830682118467F
S2144039003B4B98470446D7F894306D211846384BC1
S21440391098470546D7F8903073211846344B984759
S2144039200346384600932B4622463249324CA0473F
S2144039303846324B0A220A21314CA047314B1B787D
S214403940DBB2002B33D007F1900307F1940207F166
S21440395098011D48254CA04707F1840007F18802CE
S21440396007F18C0107F18003009303461648264C66
S214403970A047D7F88820D7F8843000930123012148
S2144039801148224CA047D7F89810D7F89430D7F86B
S21440399090200132029201220192009301230A46AE
S2144039A0012109481A4CA047164B00221A700220E3
S2144039B0184B984786E700BF491F400050180E40F6
S2144039C03D374000948D400060180E4081364000E0
S2144039D000C000409D334000150D400000000140EF
S2144039E0893440007D0C402024004020FF014000E8
S2144039F061354000888D4000C14340000C004020A7
S214403A00911140007C0C4020CD044000F50640005B
S214403A10CD034000E129400053B94AB9002908BF08
S214403A2000281CBF4FF0FF314FF0FF3000F07AB94E
S214403A30ADF1080C6DE904CE00F006F8DDF804E0C0
S214403A40DDE9022304B070472DE9F0478C460D4669
S214403A500446089E002B51D18A4217466DD9B2FAC9
S214403A6082FEBEF1000F0BD0CEF1200C01FA0EF50F
S214403A7020FA0CFC02FA0EF74CEA050C00FA0EF49B
S214403A804FEA174A250CBCFBFAF81FFA87F90AFBDF
S214403A9018CC45EA0C4508FB09F3AB420AD9ED19A8
S214403AA008F1FF3280F02381AB4240F22081A8F13A
S214403AB002083D44ED1AA4B2B5FBFAF00AFB1055D5
S214403AC044EA054400FB09F9A14509D9E41900F187
S214403AD0FF3380F00A81A14540F2078102383C441A
S214403AE0A4EB090440EA08400021002E61D024FAE5
S214403AF00EF4002334607360BDE8F0878B4207D92C
S214403B00002E54D0002186E821000846BDE8F08704
S214403B10B3FA83F1002940F08E80AB4202D3824252
S214403B2000F2FA80841A65EB03050120AC46002EAD
S214403B303FD086E81010BDE8F08712B90127B7FBE2
S214403B40F2F7B7FA87FEBEF1000F34D1EB1B3A0C02
S214403B501FFA87FC0121B3FBF2F8250C02FB183351
S214403B6045EA03450CFB08F3AB4207D9ED1908F1CB
S214403B70FF3002D2AB4200F2D1808046ED1AA3B2AB
S214403B80B5FBF2F002FB105543EA05440CFB00FC83
S214403B90A44507D9E41900F1FF3302D2A44500F248
S214403BA0B8801846A4EB0C0440EA08409DE731462E
S214403BB03046BDE8F087CEF1200405FA0EF307FA4A
S214403BC00EF720FA04F83A0C25FA04F448EA0308FB
S214403BD0B4FBF2F14FEA184502FB11441FFA87FC8A
S214403BE045EA044501FB0CF3AB4200FA0EF409D952
S214403BF0ED1901F1FF3080F08A80AB4240F28780B9
S214403C0002393D44EB1A1FFA88F5B3FBF2F002FB8B
S214403C10103345EA034500FB0CF3AB4207D9ED19D8
S214403C2000F1FF386FD2AB426DD902383D44EB1AF3
S214403C3040EA01418FE7C1F1200722FA07F88B409E
S214403C4005FA01F448EA030320FA07FE4FEA134C4C
S214403C50FD404EEA040EB5FBFCF94FEA1E440CFB51
S214403C6019551FFA83F844EA054509FB08F4AC42A7
S214403C7002FA01F200FA01FA08D9ED1809F1FF300C
S214403C8043D2AC4241D9A9F102091D442D1B1FFA6B
S214403C908EFEB5FBFCF00CFB10554EEA054400FBCF
S214403CA008F8A04507D9E41800F1FF3529D2A04509
S214403CB027D902381C4440EA0940A4EB0804A0FB7C
S214403CC002894C45C6464D4615D312D056B1BAEB7E
S214403CD00E0364EB050404FA07F7CB401F43CC40C1
S214403CE0376074600021BDE8F0871846F8E69046D5
S214403CF0E0E6C245EAD2B8EB020E69EB03050138AE
S214403D00E4E72846D7E7404691E78146BEE70146C6
S214403D1078E702383C4445E7084608E7A8F1020839
S214403D203D442BE7704700BF70B50F4E0F4D761BD6
S214403D30B61018BF002405D0013455F8043B984708
S214403D40A642F9D10A4E0B4D761B05F075F9B61012
S214403D5018BF002406D0013455F8043B9847A642C5
S214403D60F9D170BD70BD00BF449040004490400003
S214403D704C90400044904000024B0146186800F0CA
S214403D8003B800BF280040202DE9F04F01F10B0694
S214403D90162E83B0054640F29E8036F0070600F1A8
S214403DA0BD80B14200F2BA8000F0ECFAB6F5FC7F76
S214403DB0C0F09382730A00F0B880042B00F2798139
S214403DC0B30903F1390003F1380EC300BF4F3B443B
S214403DD0A3F108015C68A14206D10CE0002A80F2FB
S214403DE0AA80E468A14206D0636823F003039A1BC6
S214403DF00F2AF3DD70463C69DFF8E4E2744500F0D4
S214403E00AB81636823F003039A1B0F2A00F390816B
S214403E10002AC7F814E0C7F810E080F29D80B3F59A
S214403E20007F80F06181DB0803F1010C99107A680D
S214403E3057F83C80C4F8088001238B4007EBCC0140
S214403E4013430839E1607B6047F83C40C8F80C40B3
S214403E508210012494409C4200F28B801C4206D182
S214403E6020F0030064001C4200F10400FAD007EB87
S214403E70C009CC468046DCF80C309C4507D16DE145
S214403E80002A80F27B81DB689C4500F06781596898
S214403E9021F003018A1B0F2AF2DDD3F80CC0D3F8B9
S214403EA0088000939C19284646F0010642F001051A
S214403EB05E60C8F80CC0CCF808807C613C61C4F8F1
S214403EC00CE0C4F808E065605A5000F061FA009BC8
S214403ED003F108041EE0102920D800F053FA1026FB
S214403EE018230220794F3B44A3F108025C689442B1
S214403EF000F03D816368E168A66823F0030323442D
S214403F0028465A68F16042F001028E605A6000F01E
S214403F103FFA0834204603B0BDE8F08F00240C2357
S214403F2020462B6003B0BDE8F08F40204FF400736E
S214403F304FF03F0E4AE72344E1685A68A66842F0CD
S214403F400102F16028468E605A6000F021FA08347B
S214403F50204603B0BDE8F08F234428465A6842F016
S214403F6001025A6000F014FA0834204603B0BDE857
S214403F70F08FBC68636823F00308B04504D3A8EB11
S214403F8006030F2B00F38580DFF85891504BD9F885
S214403F9000201B680132334404EB080A00F05581C8
S214403FA003F580530F3323F47F6B2BF00F0B5946EA
S214403FB0284600F0F3F9411C024600F0FC8082459A
S214403FC000F2F780434B19685944196000F04D8160
S214403FD0D9F8000001301BBFA2EB0A0A5144C9F8C9
S214403FE00020196012F0070100F01581C1F10800A9
S214403FF0C1F580510244083102EB0B09C9F30B09A5
S214404000A1EB0909494628460193009200F0C6F9FB
S214404010431C9DE80C0000F04381801A484440F061
S21440402001001968BA604944BC425060196017D014
S214404030B8F10F0F40F2FB806068A8F10C0222F046
S214404040070204EB020E00F001004FF0050C10438F
S2144040500F2A6060CEF804C0CEF808C000F2178180
S2144040601D4BBC681A68914288BF19601B4B1A6882
S2144040709142626888BF196022F003029642A2EB22
S214404080060301D80F2B04DC284600F081F90024F3
S21440409040E7A21943F0010346F001066660284651
S2144040A0BA60536000F074F90834204603B0BDE8A7
S2144040B0F08F142B71D9542B00F2A380330B03F1ED
S2144040C06F0003F16E0EC30080E600BF5804402028
S2144040D0B00C4020800C4020A80C4020AC0C402067
S2144040E060044020600840205A0A042A5BD9142AFB
S2144040F000F2AE8002F15C01C9005B3207EB010CB6
S2144041007958ACF1080C8C4500F088804A6822F05B
S2144041100302934273D289688C45F7D1DCF80C20B1
S2144041207B68E260C4F808C09460CCF80C408FE628
S214404130A11946F0010C42F00106C4F804C0284616
S21440414079613961C1F80CE0C1F808E04E60E25090
S21440415000F01EF90834DDE67B6879E608F10108D0
S21440416018F0030F0CF1080C7FF485AE2DE0DC68E8
S214404170A34208BF02303FF43EAEBBE619441C469D
S2144041804A68DB6854F8086F42F001024A602846E5
S214404190F3609E6000F0FCF8BCE603F15C0003F1BF
S2144041A05B0EC30012E69A0902F13901C9003832A3
S2144041B0A4E7BC4254D0BC68626822F003025DE7C4
S2144041C059F80839994540F0868010F0030F00F101
S2144041D0FF30F5D17B6823EA04037B6064009C4291
S2144041E03FF6C7AE002C3FF4C4AE1C4240467FF4B8
S2144041F03EAE64001C4200F10400FAD037E68C461E
S2144042008CE7B3F5AA7F15D8F30B03F1780003F1DA
S214404210770EC300DAE54FF48051EDE67B689210E6
S214404220012101FA02F213437B60624679E70123DB
S214404230536029E740F25452934222D8B30C03F11C
S2144042407D0003F17C0EC300C0E503F1100BAEE623
S214404250542A29D81A0B02F16F01C9006E324DE775
S214404260204B196859441960B2E6CAF30B0000287F
S2144042707FF4AEAE08EB0B03BA6843F0010353601D
S214404280EEE67F204FF47E734FF07E0E9EE504F1FF
S21440429008012846009302F01FFB009B1968DFE6E2
S2144042A001204FF00009BCE6B2F5AA7F05D8DA0B2C
S2144042B002F17801C900773220E740F254518A4231
S2144042C005D89A0C02F17D01C9007C3216E74FF4FE
S2144042D07E717E2212E77B6880E7F00806F10803CD
S2144042E000E600BF800C402070B4860746D0541EBF
S2144042F0002A41D0CAB2034602E014F1FF343BD351
S21440430003F8012B9D07F8D1032C2ED9CDB245EAF0
S21440431005250F2C45EA054519D903F11002264616
S214404320103E0F2E42F8105C42F80C5C42F8085CD7
S21440433042F8045C02F11002F2D8A4F1100222F016
S2144043400F0204F00F041032032C13440DD91E46FE
S2144043502246043A032A46F8045BFAD8221F22F083
S21440436003020432134404F003042CB1C9B21C44C3
S21440437003F8011B9C42FBD170BC704714460346B1
S214404380C2E700BF014802F09BBB00BFC40C402000
S214404390014802F097BB00BFC40C402038B5074C1C
S2144043A00023054608462360FEF792FE431C00D0D5
S2144043B038BD2368002BFBD02B6038BDD80C40207E
S2144043C00EB4F0B59CB021AB0F4953F8042B0193C3
S2144043D005466FF00044086802954FF402774FF6A2
S2144043E0FF7602A90695ADF8147004940794ADF8CC
S2144043F0166000F00BF8029B00221A701CB0BDE855
S214404400F04003B0704700BF280040202DE9F04F31
S214404410C3B00C460B9192460F930C9002F042FBB1
S21440442003681A93184602F04BFFA38919901906A1
S21440443003D52369002B01F0038000230DF1C80942
S2144044401393159314932793269318931B930993CA
S214404450CDF89490C846169317939AF80030544671
S214404460E3B1252B02D119E0252B03D014F8013FE8
S214404470002BF9D1A4EB0A0585B1269B279AC8F8EC
S21440448000A001332A44072BC8F8045027922693ED
S2144044907FDC08F10808099B2B4409932378002BFE
S2144044A07FD000231A468DF8773019460D939B46E9
S2144044B04FF0FF3063780A9004F1010A0AF1010ACE
S2144044C0A3F12000582800F2C183DFE810F038023C
S2144044D0BF03BF034002BF03BF03BF03BF03BF0307
S2144044E0BF0345020302BF035D006B02BF038602A3
S2144044F09D039D039D039D039D039D039D039D0377
S2144045009D03BF03BF03BF03BF03BF03BF03BF0378
S214404510BF03BF03BF0337035703BF035703BF039E
S214404520BF03BF03BF039803BF03BF03AD03BF036F
S214404530BF03BF03BF03BF035902BF03BF031E032E
S214404540BF03BF03BF03BF03BF03BF03BF03BF0316
S214404550BF03BF03C602DB025703570357038B0252
S214404560DB02BF03BF039002BF039D02CC01B4022F
S2144045700802BF03E101BF037E00BF03BF030D0275
S2144045800D980F9340420D904BF0040B9AF8003074
S21440459094E725AA0B990C9802F000FF40B9C8464C
S2144045A079E7279B23B10C980B9925AA02F0F6FED3
S2144045B00B9B9B8913F0400F099B18BF4FF0FF33AE
S2144045C00993099843B0BDE8F08F1BF0200F119374
S2144045D040F0DD810F9A1BF0100F134640F06E85B9
S2144045E01BF0400F00F06A85148804320025012332
S2144045F00F9200278DF877700A994A1C00F0658262
S2144046002BF08002079254EA050240F064820029AB
S21440461040F03C84002B40F0D7841BF001030E93FF
S21440462000F0048642AE302306F8413D0A9B0E9ABF
S2144046309342B8BF134608930023129317B1089BC2
S21440464001330893079B13F00203109302D0089B94
S21440465002330893079B13F0840540F00E830D9BAE
S214404660089AA3EB020BBBF1000F40F30683BBF1A5
S214404670100F279C269A29DD43462146A846102738
S2144046800C9C0B9D06E0ABF1100BBBF1100F03F139
S214404690080318DD0132B74826921031072A2791C1
S2144046A083E88100EFDD25AA2946204602F076FE03
S2144046B000287FF47DAFABF1100BBBF1100F2799AC
S2144046C0269A4B46E6DC45460C4698460132A94BB0
S2144046D026925C44072A279488E8080800F39884C2
S2144046E09DF8777008F1080877B1269B01330134AE
S2144046F00DF177010122072B2794269388E80600C0
S21440470000F3DB8308F10808109B6BB1269B01334E
S21440471002341EA90222072B2794269388E8060017
S21440472000F3D68308F10808802D00F015830A9B15
S2144047300E9A9F1A002F36DD102F269B8E4D27DDB2
S21440474042462146B0464FF0100B2E460C9C0B9D21
S21440475004E0103F102F02F1080215DD013310313E
S214404760072B2791269382E84008F2DD25AA2946A2
S214404770204602F013FE00287FF41AAF103F102F99
S2144047802799269B4A46E9DC35460C4646469046DF
S21440479001333C44072B2794269388E8A00000F377
S2144047A0818308F10808079BDF0500F16882269B95
S2144047B00E99C8F8006001330C44072B2794C8F8BC
S2144047C00410269300F34D8308F10808079B5B0707
S2144047D03AD50D9B089A9D1A002D35DD102D269B47
S2144047E020DD10260C9FDDF82CB004E0103D102D87
S2144047F008F1080816DD01335E4A26931034072B6D
S214404800279488E84400F1DD25AA5946384602F048
S214404810C5FD00287FF4CCAE103D102D279C269B6E
S214404820C846E8DC0133534A26932C44072B27948A
S21440483088E8240008DD25AA0B990C9802F0AEFD06
S21440484000287FF4B5AE279C099B0D9A08998A42AA
S214404850ACBF9B185B180993002C40F00D830023D7
S2144048602693C846F9E511931BF0200340F0E381F8
S2144048701BF0100240F02E841BF0400300F02A8408
S2144048800F9913460A4604320C880F920025B0E66C
S2144048900F9A1193166800248DF87740151D002E48
S2144048A000F0A7860A9A531C00F009862146304637
S2144048B002F00EF9002800F0E186831B0E930A945E
S2144048C00F95CDF81CB023EAE373089312949DF835
S2144048D07770B3E69AF8003001222B21EEE54BF0D4
S2144048E0200B9AF80030E9E51193002A40F09587AE
S2144048F0224B18931BF0200F40F011810F9A1BF0AB
S214404900100F134640F0E1831BF0400F00F0DD83AC
S214404910043314880F9300251BF0010F00F00C8120
S21440492054EA050300F0088130239DF844208DF8B2
S21440493078308DF879204BF0020B022359E69AF82E
S214404940003000297FF4BAAD01222021B6E54BF0B5
S214404950010B9AF80030B1E50F9C23680D9318467A
S2144049600028234603F10403FFF60AAE0F939AF895
S2144049700030A3E5F88D4000088E4000D88D4000FA
S2144049804BF0100B1BF0200F11933FF423AE0F9DFE
S214404990073525F0070303F10802D3E900450F92D7
S2144049A0012326E69AF800302A2B0AF1010400F08B
S2144049B02787A3F130000928A24600F2AD860023DF
S2144049C01C461AF8013B04EB840400EB4404A3F1B4
S2144049D030000928F5D90A9472E54BF0800B9AF816
S2144049E000306BE54BF0400B9AF8003066E59AF8DD
S2144049F000306C2B03BF9AF801304BF0200B0AF1C5
S214404A00010A4BF0100B59E5002A40F011871BF0C5
S214404A10200F40F0F9841BF0100F40F0AC841BF0E0
S214404A20400F00F0A8840F9A136804320F92BDF826
S214404A3024201A8011E50F99B34B0C681893302246
S214404A40782304318DF8793011934BF0020B0F9197
S214404A5000258DF878200223CBE50F9911930A683C
S214404A608DF8A02000230A461F468DF87730043282
S214404A7001230893CDF81CB00A9712970F920E9315
S214404A8028AEDFE51193002A40F0EA861BF0200F9F
S214404A905DD11BF0100F40F008831BF0400F00F074
S214404AA004830F99B1F900400431E51722462B469E
S214404AB00F91002A73F1000358DB0A999DF877702E
S214404AC04A1C4FF001037FF49BAD54EA050200F008
S214404AD0DF81CDF81CB0012B00F07B82022B40F02A
S214404AE0068218984E46230904F00F0143EA0573E0
S214404AF02A091C461546435C06F8013D54EA050360
S214404B00F1D1A9EB06030E9390E51193002A40F0ED
S214404B10A3867E4B18931BF0200F3FF4EFAE0F9DFD
S214404B20073525F0070303F108021BF0010F0F922B
S214404B30D3E900457FF4F4AE02235AE51193002AE8
S214404B4040F086864BF0100B1BF0200FA1D00F9D37
S214404B50073525F00705D5E90023002A05F10801A9
S214404B601D4673F100030F911446A6DA2D276442C2
S214404B7065EB45058DF8777001233DE51193002AD6
S214404B8040F062860F9D073525F0070303F10802C3
S214404B900F921A6815925B681493149B159D23F028
S214404BA00044284621464FF0FF32594B03F086FB1F
S214404BB0002840F04A83284621464FF0FF32544BA7
S214404BC003F05EFB002840F0408315A80DC81499FA
S214404BD003F04CFB002840F030859DF877704D4E32
S214404BE04D4B2BF08000079011980322002108922D
S214404BF00A914728D8BF1E460E9212911EE54BF0EA
S214404C00080B9AF8003059E4A3F1300000231C4604
S214404C101AF8013B04EB840400EB4404A3F1300093
S214404C200928F5D90D944BE44BF0100B11931BF06B
S214404C3020033FF41DAE0F9D073525F0070303F113
S214404C400802D3E900450F920023D2E41193002ACC
S214404C5040F0E785119A002A3FF4A3AC00230121D7
S214404C601F4608918DF8A020CDF81CB08DF87730FF
S214404C700A9312930E9128AEE4E4279C34E5119BE8
S214404C80652B40F3A78015A80DC8149903F0E4FAE5
S214404C90002800F05081269B204AC8F800200133A7
S214404CA001340122072B27942693C8F8042000F3EA
S214404CB06A8308F108081F9B139A279C934203DBDC
S214404CC0079BDD077FF582AD269B19991A9AC8F88F
S214404CD0002001330C44072BC8F804102794269371
S214404CE000F39E8308F10808139B5E1E002E7FF794
S214404CF06DAD102E269B0A4D40F3F58122461027B7
S214404D00DDF830B00B9C13E0D88D4000C48D4000D9
S214404D10FFFFEF7FB88D4000B48D4000F48D40001B
S214404D20088E400008F10808103E102E40F3DA8145
S214404D3001331032072B2792269388E8A000F1DD36
S214404D4025AA2146584602F029FB00287FF430ACBD
S214404D50279A269BC846E7E70D9B089A9F1A002F7E
S214404D607FF7E5AC102F269BB64D27DD4246214601
S214404D70B0464FF0100B2E460C9C0B9D04E0103FA7
S214404D80102F02F1080215DD01331031072B279151
S214404D90269382E84008F2DD25AA2946204602F0FE
S214404DA0FDFA00287FF404AC103F102F2799269B6D
S214404DB04A46E9DC35460C464646904601333C4476
S214404DC0072B2794269388E8A00000F3328208F148
S214404DD00808ACE4139B269F012B40F3FE81013765
S214404DE001340123072F27942697C8F80060C8F897
S214404DF0043000F3038208F10808199A1A9BC8F891
S214404E00003001371444072F27942697C8F804200B
S214404E1000F3008208F1080815A80DC8149903F09D
S214404E201BFA139B002840F00181013B01370136F5
S214404E301C44072F26972794C8F80060C8F804300B
S214404E4000F3278108F108081B9AC8F804200137A8
S214404E50144421AB072F27942697C8F800307FF7D5
S214404E60B3AC25AA0B990C9802F098FA00287FF468
S214404E709FAB279CC846A9E425AA0B990C9802F03C
S214404E808DFA00283FF4EBACFFF792BBDDF81CB080
S214404E90012B00F03481022B25D1CDF81CB0002424
S214404EA000251EE625AA0B990C9802F077FA0028F2
S214404EB07FF47EAB279CC84675E425AA0B990C98D0
S214404EC002F06CFA00287FF473AB279CC8461BE4BC
S214404ED025AA0B990C9802F061FA00287FF468AB7B
S214404EE0279CC84620E4CDF81CB00024002549463F
S214404EF000E03146E20842EA4572E80804F007035B
S214404F0005461446303354EA050201F8013C01F1E7
S214404F10FF36EED1079AD2077FF5F3AD302B3FF43C
S214404F20F0AD0239302306F8013CA9EB01030E939D
S214404F300E46FFF77BBB1F99002940F32E82129B3B
S214404F40139A9342A8BF1346002B1F460DDD269B9F
S214404F50C8F8006001333C44072B2794C8F8047017
S214404F60269300F31F8308F10808129B002FA8BF62
S214404F70DB1B002B1F4640F3D680102F269B314D5F
S214404F8040F3ED8142462146B0464FF0100B2E4688
S214404F900C9C0B9D04E00832103F102F40F3DB8141
S214404FA001331031072B2791269382E84008F2DD23
S214404FB025AA2946204602F0F1F900287FF4F8AAEF
S214404FC02799269B4A46E7E70A9B0E934E46FFF7ED
S214404FD02DBB002D08BF0A2CC0F08F804E462046C1
S214404FE029460A220023FEF717FD303206F8012D27
S214404FF02046294600230A22FEF70EFD04460D46AB
S21440500054EA0503EBD1A9EB06030E93FFF70EBB5C
S21440501025AA0B990C9802F0C1F900287FF4C8AA7B
S2144050209DF87770279CC846FFF75EBB5E1E002E35
S2144050307FF70AAF102E034D22DD22464FF0100BAD
S2144050400C9C06E0088E4000103E102E08F1080822
S21440505015DD01371032072F2792269788E820085B
S214405060F2DD25AA0B99204602F098F900287FF435
S2144050709FAA103E102E279A269FC846E9DC144663
S21440508001373444072F2794269788E860007FF737
S214405090D9AE25AA0B990C9802F080F900287FF427
S2144050A087AA279C269FC846CEE60F9A14681346C2
S2144050B00433E5170F9322462B46FAE404321C6865
S2144050C00F9201230025FFF794BA1C6804330F9310
S2144050D0002521E40F990A4604320C680F920025F9
S2144050E0FFF787BA144601333444072B2794269398
S2144050F088E860007FF768ABB3E6DDF81CB0CDF813
S2144051001CB042AE3034012306F8414D0E93FFF7F3
S2144051108DBA25AA0B990C9802F040F900287FF426
S21440512047AA279CC8461F9A139B9A4244DB079B74
S214405130D90741D4139B12989A1A1D1A9542A8BFB4
S2144051401546002D0EDD2699C8F804500131064458
S2144051502C440729C8F800602794269100F33B8228
S21440516008F10808002DACBF561B1646002E7FF7E8
S2144051702DAB102E269BB04DB5DD22461027DDF810
S21440518030B00B9C04E008F10808103E102EA9DD54
S21440519001331032072B2792269388E8A000F2DDD1
S2144051A025AA2146584602F0F9F800287FF400AABE
S2144051B0279A269BC846E8E7269B19981A99C8F866
S2144051C0001001330444072B2794C8F804002693A4
S2144051D000F3F58108F10808ACE7079BDA073FF5CE
S2144051E0FEAD013701340123072F27942697C8F8D0
S2144051F00060C8F804307FF725AE4AE725AA0B9929
S2144052000C9802F0CBF800287FF4D2A9279C269F62
S214405210C846F2E525AA0B990C9802F0BFF800287C
S2144052207FF4C6A9279C269FC846F5E54E46FFF75D
S214405230FDB925AA0B990C9802F0B0F800287FF427
S214405240B7A9279CC846FFF772BA159C2246204647
S214405250149C2346214603F031F8002840F086820D
S2144052600A9B0133119B23F020030E9300F0E2814A
S214405270472B00F01E814BF480730793149B1F1E30
S214405280159B0893BBBF3B4603F1004700232D23E5
S2144052901093119B662B00F0BB81462B00F0DF80FD
S2144052A00E9B089A452B0CBF0A9B0A9D23A820A953
S2144052B008BF5D1C049003911FA802213B46029044
S2144052C0019500910C9800F073FB119B672B0646E6
S2144052D040F0E0811BF0010F00F046827419169AE8
S2144052E00898179B394602F0B7FF002840F06581C2
S2144052F0239BA34206D230215A1C23921970239B2B
S2144053009C42F9D89B1B13930E9B472B00F0E980D9
S214405310119B652B40F3CD81119B662B1F9B1293EF
S21440532000F09E81139B129A1946914200F38A819F
S2144053301BF0010F40F0138222EAE27308936723C2
S2144053400E921193109B002B40F0C4800A939DF858
S2144053507770FFF773B935460C464646904601339C
S2144053603C44072B2794269388E8A0003FF7D1AE0D
S21440537008F10808D7E60F9A136804320F92099A84
S2144053801A60FFF76AB825AA0B990C9802F006F83F
S21440539000287FF40DA9C8468DE4269B274AC8F806
S2144053A00020013301340122072B27942693C8F8A6
S2144053B0042072DC08F1080829B9139B1BB9079B27
S2144053C0D8077FF503AA269B19981A9AC8F8002092
S2144053D0013302462244072B2792C8F8040026933E
S2144053E000F38D8108F108080029C0F26581139901
S2144053F0C8F8006001338C18072B27942693C8F80A
S21440540004107FF7E1A92CE50F9A09991368CD1788
S2144054100846043229460F92C3E90001FFF71DB83B
S21440542025AA0B990C9801F0B9FF00287FF4C0A874
S214405430279CC84658E400BF088E4000F48D4000C4
S21440544040210C98FEF7A0FC0B9A106010610028D3
S21440545000F0F2810B9A40235361FEF7EEBF23A87B
S21440546020A90A9C049003911FA803210290089A41
S21440547001943B4600910C9800F09AFA2546064661
S214405480119B462B06EB05047FF429AF3378302B6F
S21440549000F078811F9D2C4421E725AA0B990C9893
S2144054A001F07CFF00287FF483A81F99279CC846FC
S2144054B082E70A9B002B08BF01230A93DBE63046AF
S2144054C00A9401F0FDFE0F950E90CDF81CB00346F1
S2144054D0FFF7F9B92D2700238DF877700A93FFF769
S2144054E0AEB81F9B12931A46033304DB0A9B194639
S2144054F09142BFF617AF119B023B11939DF8443083
S2144055008DF88430129B013B002B1F93BDBF129B2E
S214405510C3F101032D222B22092B8DF8852040F361
S21440552016810DF193042046AB4D00E0104685FBF6
S2144055300312D917C1EBA20101EB8102A3EB420291
S2144055403032092900F8012C0B4600F1FF32EDDC21
S21440555030330238D9B2844202F8011C40F26581E9
S2144055600DF18600134601E013F8011B00F8011BFD
S214405570A342F9D101339B1A0DF18602134421AAA6
S2144055809B1A139A1B93012A13440E9340F31981D6
S2144055900E9B199A13440E9323EAE3730893002351
S2144055A01293CFE625AA0B990C9801F0F7FE002837
S2144055B07EF4FEAF279CC846D7E42346A2E625AA3B
S2144055C00B990C9801F0EAFE00287EF4F1AF1F9A82
S2144055D0279CC846AEE525AA0B990C9801F0DEFE3E
S2144055E000287EF4E5AF1F9A139B279C9A1AC8465C
S2144055F0B8E50A9B1296062B28BF06230A9637461E
S21440560008930F95CDF81CB00E93744EFFF716B85E
S21440561023A820A90A9D049003911FA80321029065
S214405620089A01953B4600910C9800F0C1F9064651
S21440563044192BE706230A931DE62D278DF877702D
S214405640FFF7CDBA199A139B1344129A0E93002A69
S21440565040F3B08023EAE37308936723119371E61F
S214405660002B40F3C3800A9A002A40F099801BF032
S214405670010F40F0958008930E9363E60A9B0893CB
S2144056800E930A900F95CDF81CB012909DF8777047
S214405690FEF7D4BF119B472B7FF420AE1BF0010FC3
S2144056A07FF4EEAE239B9B1B13930E9B472B3FF43E
S2144056B018AF1F9B129321E74F421031484D2FDA07
S2144056C01024DDF830B004E008F10808103F102F31
S2144056D026DD01331032072B27922693C8F8005058
S2144056E0C8F80440F0DD25AA0B99584601F056FE4E
S2144056F000287EF45DAF279A269BC846E6E725AA93
S2144057000B990C9801F04AFE00287EF451AF1F9981
S214405710279A269BC84667E600200A90FEF7D0BE2A
S21440572001333A44072B88E8A0002792269308F1D5
S21440573008087FF75CAE25AA0B990C9801F02EFE60
S21440574000287EF435AF279A269BC8464FE630336E
S21440575030228DF887308DF8862022AB0FE7129BDB
S214405760199A13440E9375E7239BCBE5149B1D4E65
S214405770002BB6BF2D279DF877708DF877701A4BA3
S214405780FFF72FBA169A0898179B394602F064FD21
S21440579000287FF47FAEC5F101051F952C449EE599
S2144057A0129B199A13440A9A1A4422EAE2730E92FA
S2144057B00893C7E5129B0E9AC3F101031A44134699
S2144057C0D0E71BF0010312937FF4E2AE0E9B23EA70
S2144057D0E3730893B6E500BF67666666EC8D4000E7
S2144057E0088E4000C08D4000BC8D40000A9B13B917
S2144057F01BF0010F02D0199B0133D4E701233AE78F
S2144058000F9D9AF80130286840EAE0700A902846D2
S2144058100430A2460F90FEF751BE8DF87710FFF782
S21440582067B88DF87710FFF715BA0DF18603A6E630
S2144058308DF87710FFF7EBB80C9A0C2313604FF0F7
S214405840FF330993FEF7BDBE8DF87710FFF79AB980
S2144058508DF87710FFF776B98DF87710FFF759B9BE
S2144058608DF87710FFF712B9024B13B1024800F0DB
S21440587005B8704700000000056840000023014658
S2144058801A46184601F008BE02690B69934200F3B7
S2144058908D802DE9F04F03F1FF3801F1140700F138
S2144058A0140B57F828205BF828304FEA880483B05A
S2144058B00132B3FBF2F90BEB0403009407EB040A46
S2144058C00193B9F1000F39D000252E46BC46DE467E
